S015000042726175737465756572756E672E73726563A3
S1130000A82F0020310100001D0100001D01000087
S113001000000000000000000000000000000000DC
S11300200000000000000000000000001D010000AE
S113003000000000000000001D0100001D01000080
S11300401D0100001D010000850700006509000076
S11300501D0100001D0100001D0100001D01000024
S11300601D0100001D0100001D0100001D01000014
S11300701D0100001D0100001D0100001D01000004
S11300801D0100000D080000090B000039090000E3
S11300908D0900001D0100001D0100001D0100006C
S11300A01D0100001D0100001D0100001D010000D4
S11300B01D0100001D0100001D01000010B5064CCB
S11300C02378002B07D1054B002B02D0044800E015
S11300D000BF0123237010BDC00C002000000000ED
S11300E0B4930000084B10B5002B03D0074908480F
S11300F000E000BF07480368002B00D110BD064B89
S1130100002BFBD09847F9E700000000C40C002046
S1130110B4930000B49300000000000082B0034BCD
S11301200193EFF305830193FBE7C0460F2700001B
S113013010B5174A174B9A4211D01A00164B9A421F
S11301400DD2164A03339B1A9B0801339B000022ED
S113015010480F498C58845004329A42FAD1104AFC
S1130160104B9A420AD2D3430E495B1803218B43A6
S113017004339B18002102C29342FCD10A4AFF2196
S11301800A4B8B4393600A4B98470A4B9847FEE708
S1130190B493000000000020C00C002004000020E4
S11301A0C00C0020A40F002000ED00E000000000BF
S11301B0B92B0000410E0000014A024B1A6070473F
S11301C000093D000000002030B52C4AD369082105
S11301D00B43D3612A4AD423D1580F208143D150F1
S11301E0D15831300143D1501100D4228B585B06D1
S11301F0FCD5244B1968022081431960DA69024353
S1130200DA611A00D3699B07FCD41E4B1A681C21BF
S11302108A4308390A431A60DA68EB318A43FA39A7
S11302200A43DA608222D2053620115C0F24A143EE
S11302300D3C022529431154155C0F21294020252A
S1130240294311544C21505C0125284350544D201E
S1130250115C29431154196821431960DA69224356
S1130260DA611A00D3699B07FCD4064A538B302108
S11302708B4310210B43538330BDC046000800401C
S1130280001C0040000C00420E4A536ADB0ADB02E9
S113029078210B435362538B1B06FCD50021282382
S11302A0084AD154538B1B06FCD52823054AD05445
S11302B0538B1B06FCD5034A5168C0239B020B4396
S11302C053607047000C004230B5134C636ADB0A7C
S11302D0DB0278252B436362638B1B06FCD5282342
S11302E00D4CE15421004B8B1B06FCD5002A0BDD81
S11302F0002409492825035D4B554B8B1B06FCD56F
S11303000134E4B29442F6DB034A5168C0239B02F1
S11303100B43536030BDC046000C0042F0B5C646E6
S113032000B582B00027104B98466B46DD1D0F4E7A
S11303300020C0471020C0470F203840B023184386
S1130340C04700232B708424012240212800B04799
S1130350013C002CF8D10137FFB2082FE8D102B0DC
S113036004BC9046F0BDC04689020000C9020000EA
S1130370F0B5C64600B582B00E0044000019400036
S1130380C4B201AD02340F273B0023402B7001227D
S1130390002128000B4B98469847241110231C4336
S11303A02C70012200212800C0473E405F3F3E439D
S11303B02E70012200212800C04702B004BC9046E0
S11303C0F0BDC046C902000010B5AE201B4CA047CA
S11303D00220A0471020A0474020A047B020A047FB
S11303E08120A0478020A047A120A047A620A047A5
S11303F0A820A0473F20A047AD20A0478B20A047BE
S11304003020A047C820A047D320A0470020A04701
S1130410D520A0478020A047D920A0471F20A0476F
S1130420DA20A0471220A047DB20A0474020A047A5
S1130430AF20A047024B984710BDC0468902000078
S11304401D03000010B50300203BDBB25F2B22D953
S1130450BC2800D199E0B62839D0B02846D0A428C9
S113046053D09F2861D09C2800D170E0962800D1F9
S11304707CE0842822D14D48002303707D334370EF
S1130480122282701121C170027143710C3A2F3112
S1130490474B984712E05E2B11DC5900C9184A00FB
S11304A00023424843498918CA5C1A540133062B75
S11304B0FAD1062240213D483D4B984710BD643B8C
S11304C0DAB2382AFAD893003B4AD3589F463748C1
S11304D0002303703922427044338370C370037164
S11304E04271333A4021324B9847E7E72F480023C3
S11304F003700222427005218170C270037143713E
S113050004323B312A4B9847D8E72848002303702C
S11305102133437033338370C370037125334371C4
S113052006224021224B9847C8E720480023037045
S11305307E3343707D3B83704833C3700C33037147
S11305401E33437106224021194B9847B6E71748DA
S1130550002303703D22427040338370C3700371E3
S11305604271373A4021124B9847A7E70F480023BE
S113057003703D22427042338370C3700371427131
S1130580373A40210A4B984798E7084800230370FC
S11305903D33437003338370C370203B03715D3379
S11305A0437106224021024B984787E7DC0C002068
S11305B0C90200000C8B00004489000010B5030040
S11305C0203BDBB25F2B23D9BC2800D1A3E0B628A3
S11305D03DD0B0284BD0A42859D09F2868D09C285F
S11305E000D178E0962800D185E0842826D15348AC
S11305F0FF2303727D3B4372ED228272EE21C172AE
S1130600027343730830E73AAE394D4B984715E00F
S11306105E2B14DC5900C9184A00002347480830EF
S113062048498918CA5CD2431A540133062BF9D1BC
S11306300622402141480830414B984710BD643B95
S1130640DAB2382AFAD893003F4AD3589F463B4837
S1130650FF230372C6224272443B8372C372037344
S113066042730830C03A4021354B9847E6E7334897
S1130670FF230372FD224272FA218172C272037354
S113068043730830F73ABA392D4B9847D6E72B48CD
S1130690FF230372213B4372333B8372C3720373A0
S11306A0253B4373083006224021254B9847C5E774
S11306B02248FF2303727E3B43727D338372483B9F
S11306C0C3720C3B03731E3B437308300622402164
S11306D01B4B9847B2E71948FF230372C2224272A8
S11306E0403B8372C372037342730830BC3A4021A7
S11306F0134B9847A2E71148FF230372C2224272A8
S1130700423B8372C372037342730830BC3A402184
S11307100B4B984792E70948FF2303723D3B437212
S1130720033B8372C372203303735D3B437308300E
S113073006224021024B984780E7C046DC0C00208B
S1130740C90200000C8B0000288A000070B5040068
S11307500078002805D0034D0134A84720780028EC
S1130760FAD170BD4504000070B50400007800287B
S113077005D0034D0134A84720780028FAD170BD74
S1130780BD05000010B582B01B4B9B891B060DD51F
S1130790194A938980210B439381184C2088013096
S11307A080B296214900164B98472180124B9B89B1
S11307B05B0604D5104A938940210B4393810E4B69
S11307C09B899B0601D402B010BD0B4A938920215A
S11307D00B439381094A93780133DBB29370131D61
S11307E01100083110000C30127F01920022009297
S11307F0044A054CA047E6E700240040EC0C002026
S1130800FD1C000004000020D1160000414BDB6AEF
S1130810DB0720D53F4AD36A01210B43D3628022F0
S1130820D2038223DB055A613B4B5B681F2B4CD9F7
S11308303A4B5B7F002B3AD1394A3A4B1A60A022DB
S11308405201394B1A60334A137902210B43137155
S11308500122324B5A772F4BDB6ADB0359D52D4AE1
S1130860D16A80235B020B43D3628022D2038223AA
S1130870DB059A61294B9B7F002B3BD1274B5B7F88
S1130880002B37D1254BDB7F234A51685B015B1872
S11308909B00D3189B68002B20D0C422D201214B8B
S11308A01A601C4A137902210B4313711EE01B4A80
S11308B00123937700235377174A53601B4A194B3C
S11308C01A601B4A184B1A60C5E7144B9B7F002B18
S11308D0C1D1A0225201144B1A60BCE7154A114B36
S11308E01A600C4A137902210B4313710A4A5368A4
S11308F001335360094B9B7F002B0AD00B4A094BF1
S11309001A60044A137902210B4313710022034B2A
S11309109A7770470024004204000020EC0C002069
S113092050C201006C24004270240042881201006D
S113093070C60000B0270000074BDB6A9B030AD592
S1130940064A516C064B1962926C5A62802212025A
S11309508223DB05DA61704700280042002C004244
S1130960EC0C0020064B5B699BB2002B06D0054AB9
S1130970034B5A6101212823034AD1547047C046CE
S113098000280040FFFF0000EC0C0020124B9B7A73
S1130990DB0618D5114BDA6A0F48818B89B25200F5
S11309A09A181186DA6AC18B89B250000C4A12185F
S11309B01186822109028222D205D161DA6A0132CA
S11309C0DA62802A00D07047064A136B013313633E
S11309D00022024BDA62F6E700300042EC0C002001
S11309E0EC0D0020EC0E00203E4AD16980239B00D0
S11309F00B43D3613C4AF023D1580F208143D1509B
S1130A00D15831300143D1501100F0228B585B068C
S1130A10FCD5364A136802218B43136093689B0705
S1130A20FCD4324B1A681A60A021C901304A116003
S1130A30A02189012F4A116059791F220A4060219F
S1130A400A435A719A6A01210A439A62996A802276
S1130A5052020A439A6280218902274A11601A6865
S1130A6002210A431A601A0093689B07FCD41D4AAA
S1130A70D1698023DB000B43D3611B4AF023D15897
S1130A800F208143D150D15831300143D15011004E
S1130A90F0228B585B06FCD5184A136802218B435D
S1130AA0136093689B07FCD4144B1A681A601449AA
S1130AB0144A116059791F220A4060210A435A716D
S1130AC09A6A01210A439A628021C9020A4A116082
S1130AD01A6802210A431A601A0093689B07FCD41F
S1130AE07047C04600080040001C0040002400423B
S1130AF06C2400427024004200E100E0002800421F
S1130B00640E00006C28004230B583B0414BDB6AB0
S1130B10DB076AD53F4AD36A01210B43D3623E4BBC
S1130B20586B09313D4B9847002938D18222D205B0
S1130B30A023D358802189010B400193136A019AA1
S1130B408020400503409B180193019BDB430193E4
S1130B50314A936B01994B4001930199304CA3683E
S1130B601940C943A160019BE5682B404B40E360F9
S1130B70019C21400B400193019B916B4B4093637B
S1130B80946B019BD16B23400B43D363936B034260
S1130B902DD13122204B1A6400221F4B5A631E4A66
S1130BA0536B01335363A0238222D205D35800210F
S1130BB0DB0600D50331A0238222D205D3585B0083
S1130BC001D5012359404823134AD256521AD30758
S1130BD00BD511484823C1544924015D49B2463B11
S1130BE0134001395B185BB2035503B030BD0A4BA7
S1130BF01B6C013B002B0AD1074A14231364936B2B
S1130C00516C8020400503400B435364C4E7024AFF
S1130C101364C1E700280042EC0E0020291B0000E9
S1130C200403002010B5204A51698023DB000B43E4
S1130C3053611E4A8823D1580F208143D150D15883
S1130C4031300143D150110088228B585B06FCD50A
S1130C508223DB053B215A5C0F2082435A545722DE
S1130C60995C012001439954995C022421439954CD
S1130C70995C042001439954802212049A610C4A1D
S1130C80D1690C4808408021C9050143D1619368AA
S1130C901B0C1B0480210B439360137823431370B4
S1130CA053689B07FCD410BD00080040001C0040A2
S1130CB000280040FFFFFF8F3C4AD16980235B017D
S1130CC00B43D3613A4AF823D1580F208143D150C2
S1130CD0D15831300143D1501100F8228B585B06B2
S1130CE0FCD5344A136802218B4313601369002B2B
S1130CF0FCD1304B1A680C218A431A601A682E49B9
S1130D000A401A601968802252020A431A6019685C
S1130D10802292020A431A601A6828490A401A601B
S1130D201A6827490A401A601A001369002BFCD17B
S1130D30204BDA8820210A43DA80DA8810210A431A
S1130D40DA80DA8807218A4305210A43DA805A7A4D
S1130D5010210A435A725A7A20218A435A721A6815
S1130D601E390A431A601A001369002BFCD1802231
S1130D705203144B1A600D4AD36901210B43D3610A
S1130D808421C905DC228B581F2083431D3803436B
S1130D908B500A00D3689B07FCD50B4A8423DB05E0
S1130DA05A621A00D3689B03FCD4704700080040C1
S1130DB0001C004000300042FFF8FFFFFFFFEFFF80
S1130DC0FFFFDFFF00E100E015020000A023822204
S1130DD0D205D2580023D20600D50333A0228221A3
S1130DE0C9058A58D20601D5012253404822014937
S1130DF08B547047EC0E002072B605494922885C7A
S1130E0040B2032303408B5462B680107047C0463F
S1130E10EC0E0020034BDA6B1040DA6B4240DA63CD
S1130E207047C046EC0E002010B5034B9B6B9843F3
S1130E30024B984710BDC046EC0E0020150E000072
S1130E40F0B5DE4657464E464546E0B595B0E44D0E
S1130E50FA239B05AB61E34BEB60E34B6B61E34B24
S1130E602B618224E405C421635C04273B4363545F
S1130E70DE22A35C3B43A354CD23E05C3843E0541F
S1130E80605C022630436054A15C3143A154E25CAF
S1130E903243E254353B9846D54B4246A350D54B9A
S1130EA09847D54B9847D54B9847D54B9847D54B42
S1130EB09847D54B9847D54B9847D54B9847D54B32
S1130EC09847D54BA3608121C903E1618020400587
S1130ED060605C23E25C1743E754A061E25C164364
S1130EE0E654E0222C33E250683B4246A350A16012
S1130EF0CA4B984700210120C94EB047C948CA4C83
S1130F00A04701210120B047C848A047E87FC0B2EC
S1130F100A220AA9C64B98470AA8A047002400231E
S1130F2001939A460027002505339946C14B9846FC
S1130F307DE3802194238222D205D150002D00D05C
S1130F409FE35346002F00D09EE3012B00D1B0E075
S1130F50002B0ED0022B00D1B5E0042B00D193E37B
S1130F60B54B98472018C0B20321B44B9847CCB274
S1130F7004E0B14B9847241803210C40012C00D104
S1130F80C0E0002C00D1A7E0022C00D1F4E0032C37
S1130F9000D171E12823924AD35C002B00D0C2E136
S1130FA04A33A74AD35C002B00D0BCE1A0238222A1
S1130FB0D205D358002B00DA1BE201214A23A04AB0
S1130FC0D154002F00D119E2854B9A889D490CA871
S1130FD09D4B984704210120914B98470CA8924BB4
S1130FE0984780204005994B9847002818D07C4B9F
S1130FF0DB7FDBB2012B00DC12E20022784BDA77D4
S113100001210120864B98478848874EB047744B8E
S1131010D87FC0B20A220AA9854B98470AA8B047CC
S11310205346002B00D101E26D4B1B7F002B00D1F6
S1131030E4E26B4B9B880A2B02DC0021684AD177DF
S11310401A000B3A92B2092A19D80A3B9BB21A0128
S1131050D21A92B2624B1B889A4200DAF6E101205E
S11310605F49C8777A490CA8774EB047052101201B
S11310706B4B98470CA86C4EB0477648B047584B1A
S11310809B881A00153A92B2132A00D9F6E1143B50
S11310909BB21A01D21A92B2514B1B889A4200DABF
S11310A0DCE14946012900DCD4E102204C49C8773F
S11310B0D7E1614B98474844C0B206215F4B98473B
S11310C0CBB299465AE75C4B9847019B9C466044D7
S11310D001231840019051E700205C4B98470121FF
S11310E000204F4B9B4698475B484F4EB047032127
S11310F00020D8475848B04707210020D847564811
S1131100B04747E70020514B984701210020444B4A
S11311109B4698475148444EB04703210020D84786
S11311204D48B04707210020D8474B48B0475346A5
S1131130002B0BD180208001444B9847002800D11C
S113114028E7012352465A40924623E70121012011
S1131150334B9847224BDA7FD2B241490CA83A4E1E
S1131160B0470CA8304B98474A463E490CA8B047B4
S11311700CA83D4B9847DDE701210020284B9B46F6
S113118098473548284EB04703210020D8473348B4
S1131190B04707210020D8472F48B047002F09D176
S11311A080208001294B9847002800D1F2E60123D2
S11311B05F40EFE603210120194B98472B481A4B57
S11311C098471C4B18682A4B984702000B00294982
S11311D00CA81D4EB0470CA8234B9847E0E7C04627
S11311E0EC0C0020000020419A99993F0000A04196
S11311F010200040B9010000250C0000B90C0000CB
S1131200E9090000C9010000D917000059180000BD
S1131210A9190000CD0D000000824000C9030000A0
S113122071030000788D00004D0700008C8D0000D4
S11312306D43000004000020F90D0000291B00008C
S1131240EC0E0020FC8D0000952C0000290E0000FF
S1131250208E0000308E0000988D00009C8D0000D0
S1131260A08D0000B08D000069070000B48D00005F
S1131270D92A0000E48D000001210020C94B9B46BF
S11312809847C948C94EB04703210020D847C648EB
S1131290B04707210020D847C548B047002D28D0C3
S11312A0019B012B12D007210120BE4B9847C14856
S11312B0C14B984780208001C04B9847002800D13B
S11312C068E60022BE4B1A77002563E60721012059
S11312D0B44B9847BB48B84B984780208001B74B24
S11312E09847002800D155E60122B54B1A7700250E
S11312F050E6019B012B0ED007210120A94B9847F2
S1131300AC48AA4B984780208001AC4B9847451EB7
S1131310A841C5B23EE607210120A24B9847A9483F
S1131320A24B9847EFE700212823A54AD1548022F5
S113133012058223DB055A610122A34B9A621A002B
S1131340137E9B07FCD5A04A137E5B07FCD59E4AFF
S1131350936ADB05DB0D4C219C4843525523936271
S1131360137E9B07FCD5984A137E5B07FCD59649F0
S11313708B6ADB05DB0D95484C228352835A1B0292
S11313809BB2835255238B620A00137E9B07FCD5C4
S11313908D4A137E5B07FCD58B4B9B6ADB05DA0D0C
S11313A08A484C21435A9B189BB24352405A80228C
S11313B012058223DB059A614008854B9847F42186
S11313C08905844B98478721C905834B98477C4BF3
S11313D09860824B984702000B00814902A8814E15
S11313E0B047022101206F4B984702A86F4B9847E2
S11313F0DCE500214A23754AD154E2E57A4B1868AA
S1131400764B984702000B0078490CA8754EB047FC
S113141003210120634B98470CA8644B9847D3E5FC
S1131420674AD37F0133DBB2D377E9E5644BDA7FD4
S1131430D2B24B466E490CA86A4EB0470121012036
S1131440584B98470CA8594B9847EDE500205C4948
S1131450C87707E65A494846C87702E00120584948
S1131460C87764490CA85F4EB047052101204D4B55
S113147098470CA84D4EB0475F48B047504B9B88E7
S11314801A00293A92B2132A1BD8283B9BB21A019C
S1131490D21A92B24A4B1B889A425ADB4946022915
S11314A053DD03204649C87752490CA84D4EB04736
S11314B0052101203B4B98470CA83C4EB0474E48B1
S11314C0B0473F4B9B881A003D3A92B2132A1BD86F
S11314D03C3B9BB21A01D21A92B2394B1B889A42F6
S11314E046DB494603293FDD04203549C877414995
S11314F00CA83C4EB047052101202A4B98470CA864
S11315002A4EB0473C48B0472D4B9B88502B78DD82
S1131510503B9BB21A01D21A92B2294B1B889A42B1
S113152035DB494604292EDD05202549C877314994
S11315300CA82C4EB047052101201A4B98470CA843
S11315401A4EB0472C48B0475BE01D494846C8775F
S1131550AAE74946022903DD02201949C877A3E70F
S113156017494846C8779FE715494846C877BEE7F4
S11315704946032903DD03201149C877B7E7104919
S11315804846C877B3E70E494846C877CFE7494687
S1131590042903DD04200A49C877C8E708494846F6
S11315A0C877C4E771030000988D00004D07000060
S11315B09C8D0000CC8D000069070000290E0000FE
S11315C0EC0C0020C08D000000180042EC0E00203E
S11315D0392A000081240000C1260000D92A000015
S11315E0D88D0000952C000004000020EC8D000034
S11315F00C8E0000208E0000308E00000022274B4D
S1131600DA77264BDB7F002B2CD0402198238222D3
S1131610D205D150002D0AD1204B1E7F002E27D099
S1131620072101201E4B98471E481F4B98471B4B10
S11316309968434618681D4B9847061C1C491D4B66
S11316409847002800D174E4FF218905301C1A4B07
S11316509847002800D16CE4802198238222D20587
S1131660D1506BE4402194238222D205D150D1E79A
S1131670072101200A4B984710480B4B9847350027
S1131680D5E7002F00D11EE50D4B98470D4E0E4BAC
S1131690984731680D4B984730606FE4EC0C00209C
S11316A071030000C08D00004D070000C12600003A
S11316B00000C0BF691D0000411D0000CC8D00006A
S11316C0F90D000004000020392A00007D1D0000EF
S11316D0F0B5DE4657464E46C0B584B004000D0052
S11316E002930CAB19780DAB1B78002B56D0002954
S11316F002D000212F4B19602B680393191C10682A
S11317002D4B9847061C2D4F2168B8472C4B9A4601
S113171098478346E36801936168181CB847011C25
S1131720FE208005274B9847311CB847071C214EE3
S11317303068254B9847011C381C244B9847D047E8
S11317403060234B98422FDD1A003260194E642119
S11317503068204B98475844070071680398164B2B
S11317609847184B994601999847144EA168B04779
S1131770041C0199FE208005C847011C201CB047A9
S11317800F4B9847C019642800DD6420C343DB175E
S11317901840029B18802A68064B5A6004B01CBC8F
S11317A091469A46A346F0BD0028CFDA0022014BA9
S11317B01A60CBE73C0F0020C12600008124000002
S11317C0F9290000A1200000392A00007D1D000035
S11317D010270000311B000010B51A494B69202264
S11317E013434B61184B9A69082002439A61986924
S11317F00224204398611A690720824322431A6114
S11318004A6980239B0013434B61104B5A89802102
S11318100A435A815A8940210A435A815A8920210C
S11318200A435A811A880A491140B02212010A4314
S11318301A800421074A11601A8802210A431A8077
S113184010BDC046000800400014004000240040C1
S1131850FFF0FFFF00E100E030B58223DB05BF218C
S11318605A5C0F24A2435A54DF22995C012001439D
S11318709954995C022001439954995C04200143D2
S1131880995480210906473A9950404A80239B0580
S1131890936213691B0C1B04802109020B4313611F
S11318A008223B4B1A603B4AD36940252B43D36142
S11318B0394AE423D058A043D050D1582943D150B9
S11318C01100E4228B585B06FCD5344B19680220C6
S11318D081431960DA690243DA611A00D3699B070C
S11318E0FCD48222D20580231B05936193602B4B89
S11318F019682B480140196019682A48084080215A
S113190049020143196019681C20814310380143BE
S11319101960586880218902014359601868802140
S1131920490501431960186880218905014319603C
S1131930B121505C0F25A843032420435054B02008
S1131940115CA94321431154145C0F21214030241C
S113195021431154C024115D012001431155023467
S1131960115D01431155013C115D014311550122E3
S11319701A731968022001431960DA690243DA61B3
S11319801A00D3699B07FCD430BDC0460028004030
S113199000E100E000080040001C00400018004284
S11319A0FFFFCFFFFFFFFCFF82B0002301938022E3
S11319B012058223DB055A6180220E4B9A621A00BB
S11319C0137E9B07FCD50B4A936ADB05DB0D019361
S11319D0C1239362137E9B07FCD5064B9B6ADB05F0
S11319E0DB0D0193802212058223DB059A6102B08C
S11319F07047C046001800420300064A1268002AD5
S1131A0004D0044A1068C318136070470249014A9D
S1131A101160F6E7440F0020A82F0020002243089D
S1131A208B4274D303098B425FD3030A8B4244D3A2
S1131A30030B8B4228D3030C8B420DD3FF220902E4
S1131A4012BA030C8B4202D31212090265D0030BA3
S1131A508B4219D300E0090AC30B8B4201D3CB0399
S1131A60C01A5241830B8B4201D38B03C01A5241DB
S1131A70430B8B4201D34B03C01A5241030B8B42DD
S1131A8001D30B03C01A5241C30A8B4201D3CB02C8
S1131A90C01A5241830A8B4201D38B02C01A5241AD
S1131AA0430A8B4201D34B02C01A5241030A8B42B0
S1131AB001D30B02C01A5241CDD2C3098B4201D3C8
S1131AC0CB01C01A524183098B4201D38B01C01A46
S1131AD0524143098B4201D34B01C01A52410309BD
S1131AE08B4201D30B01C01A5241C3088B4201D36C
S1131AF0CB00C01A524183088B4201D38B00C01A19
S1131B00524143088B4201D34B00C01A5241411A3F
S1131B1000D20146524110467047FFE701B500204C
S1131B2000F0F0F802BDC0460029F7D076E7704710
S1131B3003460B437FD4002243088B4274D303092A
S1131B408B425FD3030A8B4244D3030B8B4228D3CB
S1131B50030C8B420DD3FF22090212BA030C8B42F1
S1131B6002D31212090265D0030B8B4219D300E091
S1131B70090AC30B8B4201D3CB03C01A5241830B16
S1131B808B4201D38B03C01A5241430B8B4201D3C6
S1131B904B03C01A5241030B8B4201D30B03C01AEF
S1131BA05241C30A8B4201D3CB02C01A5241830A69
S1131BB08B4201D38B02C01A5241430A8B4201D398
S1131BC04B02C01A5241030A8B4201D30B02C01AC2
S1131BD05241CDD2C3098B4201D3CB01C01A524129
S1131BE083098B4201D38B01C01A524143098B42B2
S1131BF001D34B01C01A524103098B4201D30B019B
S1131C00C01A5241C3088B4201D3CB00C01A5241BF
S1131C1083088B4201D38B00C01A524143088B4284
S1131C2001D34B00C01A5241411A00D2014652411D
S1131C30104670475DE0CA0F00D04942031000D33C
S1131C404042534000229C4603098B422DD3030A91
S1131C508B4212D3FC22890112BA030A8B420CD3A1
S1131C60890192118B4208D3890192118B4204D3CA
S1131C7089013AD0921100E08909C3098B4201D34A
S1131C80CB01C01A524183098B4201D38B01C01A84
S1131C90524143098B4201D34B01C01A52410309FB
S1131CA08B4201D30B01C01A5241C3088B4201D3AA
S1131CB0CB00C01A524183088B4201D38B00C01A57
S1131CC05241D9D243088B4201D34B00C01A52412E
S1131CD0411A00D20146634652415B10104601D3BB
S1131CE04042002B00D54942704763465B1000D345
S1131CF0404201B5002000F005F802BD0029F8D0EB
S1131D0016E770477047C0468446081C6146FFE7E3
S1131D101FB500F073FB002801D40021C8421FBD89
S1131D2010B500F005FB4042013010BD10B500F0C5
S1131D3065FB002801DB002010BD012010BDC0465A
S1131D4010B500F05BFB002801DD002010BD012070
S1131D5010BDC04610B500F011FB002801DC0020C6
S1131D6010BD012010BDC04610B500F007FB0028CF
S1131D7001DA002010BD012010BDC046F0B5C646F2
S1131D804E024702760A7B0A4400C50FF70048005A
S1131D90984600B5240E2A00DB00000EC90FBC468D
S1131DA08D4267D0221A002A00DCA5E000283AD12F
S1131DB0002F00D193E0511E002900D0BCE0012483
S1131DC0DB1B5A0146D59B019E09300000F0D6FE6C
S1131DD005388640844200DD9DE0041B320020204B
S1131DE00134E240041BA64033005E1EB3410024CC
S1131DF013435A0704D00F221A40042A00D0043394
S1131E005A0129D50134FF2C00D181E02A009B011D
S1131E105B0AE4B25B02E405580AD207204310438C
S1131E2004BC9046F0BDFF2CE3D080213800C904E7
S1131E30084384461B2A00DD82E020206146D1400D
S1131E40821A604690400200501E82410A439B1A47
S1131E505A01B8D45A07CED1DE082A00FF2C3AD151
S1131E60002E00D1AEE08023DB0333435B025B0A28
S1131E70FF24CFE7211A002952DD002831D0FF2C9E
S1131E80B7D080203E00C0040643B4461B2900DDC1
S1131E90AAE020266046C840711A66468E4031008A
S1131EA04E1EB14101435B185901D3D50134FF2CB7
S1131EB000D187E0012278491A405B080B401343A4
S1131EC097E7002C00D0A7E0002B00D0B6E03B1E23
S1131ED062D10026002273025B0AE4B29AE714007E
S1131EE087E7002F4DD0481E002857D163440124B2
S1131EF05A01AFD50224DDE7002A24D1621CD2B2F4
S1131F00012ADEDDDE1B720135D5FE1A0D005CE709
S1131F102A0000237EE73300604A241A134068E74E
S1131F20002963D1611CC8B201284EDDFF2949D0C4
S1131F3063445B080C005CE7FF2A41D00A0079E7A0
S1131F4001229B1A84E7002C1DD0FF2822D0802474
S1131F50E404524223431B2A00DD8AE01C002025AE
S1131F60D440AA1A93405A1E934123436246040064
S1131F70D31A0D0025E7002E00D026E70022002406
S1131F80A9E70C0035E7002B4DD0D243002AEDD051
S1131F90FF28E0D16346FF240D002AE7FF290FD074
S1131FA0010073E7002B61D0FF24002F00D120E74C
S1131FB080224146D203114202D0164200D13B0096
S1131FC0FF2416E7FF24002324E7002CEAD1002B8A
S1131FD058D0002F00D10CE763445A0100D439E7EC
S1131FE02E4A0C00134004E701215CE7002C1ED1AB
S1131FF0002B40D0C94300290BD0FF2836D01B2921
S113200047DC1C002026CC40711A8B40591E8B41A2
S113201023436344040047E7002B18D13B1E2DD013
S11320200D00FF24E5E63B0004000D00E1E6FF2877
S11320301CD08024E40449422343E0E7002F00D16C
S1132040D7E6DE1B72011FD5FB1A0D00D1E6FF2473
S1132050002F00D1CDE680224046D2031042AFD0FB
S11320601642ADD13B000D00FF24C2E66346FF24B7
S1132070BFE601237AE73B000400BAE6802600228B
S1132080F603F0E63B00B4E6331E00D0E2E600229D
S113209021E70123BDE7C046FFFFFF7DFFFFFFFBF4
S11320A0F0B557464E46DE464546E0B54402430089
S11320B0C60F83B00F1C640A1B0EB24653D0FF2B0D
S11320C027D08022E400D20414437F225242904657
S11320D09844002399469B467D027800FB0F6D0AC5
S11320E0000E009324D0FF2846D080230021ED0069
S11320F0DB041D437F384746381A4F460F43BF0061
S1132100B9463300009A874F53404A46BA58019360
S11321109746002C4ED108239946F7339846FD3B49
S11321209B467D027800FB0F6D0A000E0093DAD106
S1132130002D26D1002001213300009A7A4F53400C
S11321404246101A4A460A439200BA581D0097465E
S1132150009B2C009A468B465B46022B31D153469A
S1132160FF21002438E0002C17D1042399460023D2
S1132170984601339B46AFE7FF20002D0BD1022187
S1132180DAE7280000F0FAFC431F9D4076235B4207
S1132190181A0021AFE70321ADE7200000F0EEFCA0
S11321A0431F9C4076235B421B1A984600239946A2
S11321B09B4691E70C239946F3339846FC3B9B4698
S11321C08AE7032B00D1A5E05546012B00D081E01E
S11321D00123002100242B406402C905600ADB07A7
S11321E00843184303B03CBC90469946A246AB460C
S11321F0F0BD80240023E403FF21EDE7FF21002448
S1132200EAE70123591A1B2966DD019A13400021CC
S11322100024E1E78023DB031C4238D01D4251D067
S11322201C436402640A3300FF21D5E763016C0197
S1132230A3423BD21B260021013801251F0049007F
S11322405B00002F01DB9C4201D81B1B2943013E8C
S1132250002EF3D11C00631E9C410C4301007F310E
S11322600029CEDD630704D00F232340042B00D0C4
S11322700434230103D501002C4B80311C40FE297A
S11322800DDD0123019AFF2113400024A4E78023DC
S1132290DB031C436402640A3300FF219CE701232F
S11322A0019AA401640AC9B2134095E71B1B1A26BC
S11322B00121C2E7009B8B469A4600244CE7630247
S11322C0E5D500258024E4032C436402640A009BC2
S11322D0FF2181E70195C1E723002020CB40411A6B
S11322E08C40611E8C411C43630704D00F232340A0
S11322F0042B00D00434630105D50123019A012184
S11323001340002468E70123019AA401640A1340DE
S1132310002161E78023DB031C436402640A534603
S1132320FF2159E7348E0000748E0000FFFFFFF791
S113233070B5420045024E024C00C30F6D0A120EE6
S1132340760A240EC90F0120FF2A06D0FF2C03D0E1
S1132350A24201D1B54206D070BD002DFCD1FF2CA4
S1132360FAD1002EF8D18B4206D00120002AF3D1F5
S11323702800451EA841EFE70020EDE7F0B5420034
S113238045024C02C30F48006D0A120E640A000E87
S1132390C90FFF2A1ED0FF2821D0002A0AD16E427D
S11323A06E41F6B200280FD1002C0DD10020002D73
S11323B009D005E0002801D1002C01D08B4211D0B6
S11323C0012158420843F0BD002EF7D00120013905
S11323D00843F8E7002DDED002204042F3E7002C4A
S11323E0DBD0F9E78242EBDC04DBA542E8D800202D
S11323F0A542E8D20121581E0843E4E7F0B54200A3
S11324004D024C004602760A120EC30F6D0A240ECA
S1132410C90FFF2A16D0FF2C18D0002A0AD1704207
S11324207041C0B2002C15D0002805D0012001391C
S11324300843F0BD002C13D0994214D001205B4214
S11324401843F6E70220002EF3D1E4E70220002D22
S1132450EFD1E2E7002DE7D10020002EE9D0EDE72F
S1132460002DE9D1EAE7A24206DCDFDBAE4203D865
S11324700020AE42DAD3DCE7012049420843D8E722
S1132480F8B557464E464546DE46E0B54702460097
S113249088467F0A360EC40F002E47D0FF2E24D064
S11324A0FB008027FF041F43002399469A467F3E82
S11324B043465D025800DB0F6D0A000E984643D078
S11324C0FF283BD0EB0080250022ED041D437F381C
S11324D03618731C41469B464B46614013430F2BF1
S11324E064D875489B00C3589F46002F42D10823E7
S11324F09946063BFF269A46DAE74146022A28D047
S1132500032A00D1CEE0012A00D0ACE01140002023
S11325100022CCB24002D205400AE4071043204313
S11325203CBC90469946A246AB46F8BD002F15D157
S113253004239946033B00269A46B9E7FF2002226A
S1132540002DC5D00322C3E7002D19D1002001229C
S1132550BEE70124FF220C400020DBE7380000F036
S11325600DFB7626431F9F4000237642361A994678
S11325709A469DE70C239946093BFF269A4697E71E
S1132580280000F0FBFA431F9D4076235B42181A93
S113259000229DE780200024C003FF22BAE73D000B
S11325A05246ABE73D0021005246A7E73B0C9C4650
S11325B02A04120C2B0C1400604665463F043F0CA1
S11325C07C4342435D437B43270C9B18FF18BA426C
S11325D003D980235B029C46654424043A04240CFA
S11325E0121993015C1EA3413F0C920E7D191A43EC
S11325F0AD0115432B0104D501235E466A081D4035
S1132600154332007F32002A25DD6B0704D00F23E7
S11326102B40042B00D004352B0103D53200274B6B
S113262080321D40FE2A94DC0124A801400AD2B263
S11326300C406FE78020C003074207D0054205D154
S113264028434002400A4446FF2263E738434002DD
S1132650400AFF225EE70124A31A1B2B05DD0C4070
S11326600022002056E75E46CBE72A002020DA400D
S1132670C31A9D402B005D1EAB4113435A0704D07F
S11326800F221A40042A00D004335A0104D501242D
S113269001220C4000203DE701249B01580A0C4014
S11326A0002237E780200124C00328434002400A67
S11326B00C40FF222EE7C046B48E0000FFFFFFF758
S11326C0F0B54F46D64646464400C0B5C20F470251
S11326D04802400A844666467B0A4800C90F9A4667
S11326E0240E1500DB00000E8946F600FF2800D1F9
S11326F08FE001214F464F403900914266D0221AA3
S1132700002A00DC9DE000283DD1002E00D18BE0A2
S1132710511E002900D0B5E001249B1B5A0144D569
S11327209B019F09380000F029FA0538874084424C
S113273000DD96E0041B3A0020200134E240041B33
S1132740A7403B005F1EBB41002413435A0704D03B
S11327500F221A40042A00D004335A0127D5013429
S1132760FF2C00D179E001229B015B0AE4B22A40EC
S11327705B02E405580AD207204310431CBC904670
S11327809946A246F0BDFF2CE0D08021C9040E4337
S11327901B2A7BDC31002020D140821A9640721E15
S11327A096410E439B1B5A01BAD45A07D0D1012239
S11327B0DF082A40FF2C33D1002F00D1A8E080236A
S11327C0DB033B435B025B0AFF24D1E7211A0029A8
S11327D04CDD00282AD0FF2CB8D08020C00406434A
S11327E01B2900DDAFE030002027C840791A8E4055
S11327F0711E8E4106439B195901D6D50134FF2C15
S113280000D185E001227A491A405B080B4013434A
S11328109CE7002E00D070E76BE73B1EC5D1002279
S11328207B025B0AE4B2A3E714008FE7002E4DD0CD
S1132830481E002857D19B1901245A01B5D50224FA
S1132840E0E7002A25D1621CD2B2012A72DD9F1B67
S11328507A0135D5F71A0D0064E7012200232A40D6
S113286086E73B00634A241A13406FE700296CD1C2
S1132870611CC8B201284EDDFF2949D09B195B08B1
S11328800C0063E7FF2A41D00A0081E701269B1B65
S113289089E7002C1CD0FF2821D08024E404524274
S11328A023431B2A00DD96E01C002025D440AA1AED
S11328B093405A1E93412343F31A04000D002DE75D
S11328C0002F00D02EE700220024A9E70C003DE7EA
S11328D0002B58D0D243002AEED0FF28E1D1330098
S11328E0FF240D0032E7FF2910D0010078E7002B08
S11328F06ED0FF24002E00D128E780225146D20357
S1132900114203D06146114200D13300FF241DE778
S1132910FF2400232CE7002CE9D1002B63D0002EE8
S113292000D113E79B195A0100D43EE7314A0C0049
S113293013400BE7002C1ED1002B2FD1002E4FD0BB
S113294033000D0002E7012655E7002C1FD1002BB0
S113295043D0C94300290BD0FF2839D01B2944DCBC
S11329601C002027CC40791A8B40591E8B412343ED
S11329709B19040040E7002B1AD1002E24D1802794
S11329800022FF031BE7330004000D00DEE6FF28EE
S11329901ED08024E40449422343DFE7002E00D103
S11329A0D4E69F1B7A0100D437E7F31A0D00CDE675
S11329B0FF24002E00D1C9E680225046D2031042E3
S11329C0A4D060461042A1D133000D00FF24BDE61F
S11329D03300FF24BAE601236EE733000400B5E6B2
S11329E0002700221CE73300B0E60123C0E7C046FD
S11329F0FFFFFF7DFFFFFFFB41024300C20F490AB7
S1132A001B0E00207E2B0DDD9D2B0CDC8020000492
S1132A100143952B0ADC9620C31AD9404842002A68
S1132A2000D108007047034BD018FBE7963B994050
S1132A30F4E7C046FFFFFF7F70B5002830D0C3170E
S1132A40C4185C40C50F200000F098F89E231B1AA0
S1132A50962B0DDC9622D21A94402A006402640A52
S1132A60DBB26402DB05600AD2071843104370BD71
S1132A70992B19DC9922D21A002A29DD94402200CC
S1132A80144C1440510704D00F210A40042A00D0EA
S1132A900434620113D4A401640ADBB22A00E0E71F
S1132AA0002200230024DCE705222100121AD14071
S1132AB0B922D21A9440621E94410C43DAE7054BC2
S1132AC02A001C409F23A4011B1A640ADBB2C8E736
S1132AD02200D5E7FFFFFFFB4100090E4B1C70B538
S1132AE0DBB24602750AC40F012B14DDE0239B0000
S1132AF06D07360BCB1800210A0D280012051C4D5A
S1132B0032435B052A405B0813435B00E4075B0820
S1132B102343190070BD002914D1002D1ED02800B4
S1132B2000F02CF80A281CDC0B232A001B1ADA40BC
S1132B30030015339D400F4B12031B1A5B05160B44
S1132B405B0DD8E7002D06D0320B802636036D07C7
S1132B501643094BCFE7084B0026CCE70023002699
S1132B60C9E703002A000B3B9A400025E3E7C0466F
S1132B70FFFF0F8089030000FF0700001C210123D1
S1132B801B04984201D3000C10391B0A984201D34C
S1132B90000A08391B09984201D30009043902A22A
S1132BA0105C40187047C046040302020101010191
S1132BB0000000000000000070B50D4E0D4D002413
S1132BC0AD1BAD1005D0A300F35801349847A542BE
S1132BD0F9D106F0D9FB084E084D0024AD1BAD1009
S1132BE005D0A300F35801349847A542F9D170BD2C
S1132BF09493000094930000949300009C9300002D
S1132C00F0B5830743D0541E002A3FD0CEB2020051
S1132C10032502E01A00013C38D3531C16702B42E2
S1132C20F8D1032C2AD9FF220A40150215432A049D
S1132C3015430F2C14D927001A00103F3E09013602
S1132C4036019E19156055609560D5601032964224
S1132C50F8D10F2297431037DB191440032C0DD9F8
S1132C601A00271FBE080136B6009E1920C2B242C0
S1132C70FCD1032297430437DB191440002C05D000
S1132C80C9B21C19197001339C42FBD1F0BD140068
S1132C900300C6E70EB410B59DB002A90290086106
S1132CA00B48822488604861012040421FABC881E0
S1132CB0084804CBA400006801938C8100F00CF850
S1132CC00023029A13701DB010BC08BC03B018474F
S1132CD0FFFFFF7F14030020F0B5DE46454657464C
S1132CE04E46E0B5C3B00D00069114000F93099051
S1132CF002F0DCFB03681800199303F089FA1890BA
S1132D00AB891B0605D52B690793002B01D101F074
S1132D1063F832AB25930023A34625AFBB607B60E9
S1132D2014931693159332AE17931A930A935B4632
S1132D301B785C46002B1CD0252B02D119E0252BD7
S1132D4003D001342378002BF9D15B46E51A10D067
S1132D505B463360BB6875605B19BB607B6801339D
S1132D607B60072B2EDC08360A9B9C46AC446346EA
S1132D700A932378002B2ED0631C9B46002316AAAB
S1132D80D377012252429246002200210B92203234
S1132D9091462032637888460020002494465946A0
S1132DA001311A00203A582A00D9FDE2D74D920089
S1132DB0AA5897460B9B0F925B420B9304231C4328
S1132DC00B78EDE73A000699099803F053FA0028C6
S1132DD009D132AEC8E7BB68002B04D03A0006998B
S1132DE0099803F047FA069B9B895B0601D501F01D
S1132DF0CEF80A9843B03CBC90469946A246AB46EE
S1132E00F0BD01220B7890462B20C9E74B1C9B4652
S1132E100B782A2B01D101F01BFA1A000021303A59
S1132E208A465946092ABCD80300110050465A461E
S1132E309A46A34683001B1814785B005818210097
S1132E40531C30391A000929F4D952461900824614
S1132E50230010005C46A4E780231C430B789FE703
S1132E608B4641461293002901D001F01FFA10232A
S1132E701C430F9AA30601D500F088FEE30601D592
S1132E8000F080FD630601D400F07CFD0021535E58
S1132E900C930432DB170D930F9201D500F086FEDC
S1132EA00C990D9A080016ABDB7F1043984602007C
S1132EB001235146013100D1FFE0802120008843E5
S1132EC00890002A00D0FCE05246002A01D000F00D
S1132ED02CFC002B01D000F004FD012032AB20407B
S1132EE00E90119308D02723302128AAD15416AA72
S1132EF0944648336344119353460E9A079392457C
S1132F0000DA0792002313934346002B02D0079B59
S1132F10013307930223089A1A40914602D0079B73
S1132F20023307938423089A1A40109200D04DE28A
S1132F300B9B079A9C1A002C00DC47E27449BA6880
S1132F407B688846102C1FDD31001025464603E0BF
S1132F50103C0831102C15DD103201330E604D6029
S1132F60BA607B60072BF3DD3A000699099803F0F9
S1132F7081F9002800D036E7103CBA687B6832A992
S1132F80102CE9DCB0460E00414674600133A418ED
S1132F903160BC607B60072B01DD00F0A8FC16AB40
S1132FA0DB7F0836984612E28B464146129300298D
S1132FB001D001F077F907220F9B073393430132C5
S1132FC094469C4462460F921A6816925B680122EA
S1132FD01593159B169D5B005B08984652424D4B1A
S1132FE02800414605F0D4FB002801D000F0FDFD87
S1132FF00122484B52422800414603F0F1FD0028CB
S113300001D000F0F2FD002200231698159903F078
S1133010DDFD002801D001F022F816ABDB7F9846D5
S1133020129B472B01DD00F0C7FE3B4B119380231D
S11330309C437D3B07930E93002308949A46139375
S113304062E70022303B15001A00030007940800D1
S11330502C009B46A3001C190378640014191A0061
S11330600131303A0800092AF4D90B945846079CD8
S113307097E608231C430B7892E6129310231C4313
S11330808B46A30600D57BE1E30601D500F07EFC68
S1133090630601D400F07AFC0F9B1A880C9200227C
S11330A004330F9300230D920C9A002116A8C177C4
S11330B088465146013100D0FFE6002A00D135E3AD
S11330C00894012B00D1E5E3022B00D062E3179CA6
S11330D00F20A146B44632AB19000C9A0D9B040094
S11330E04D4614402C5D1E07150901392E430C7002
S11330F01C092300340032001C43F0D10C920D93C0
S113310032AB5B1A119166460E93F5E6F88E000019
S1133110A0900000FFFFEF7F5C900000129310234B
S11331201C438B46A30600D511E1E30601D500F04C
S113313031FC630601D400F02DFC0F9B1A880C921D
S1133140002204330D920F930C9A0123ADE78B46B2
S113315041461293002901D001F090F8B84B17931F
S1133160A30600D5ABE0E30601D500F007FC630637
S113317001D400F003FC0F9B1A880C920022043344
S11331800D920F93E30700D4A9E00C990D9A0B005C
S113319013431A000223002A00D186E730201EA917
S11331A0087048256846401900781C4348707CE73D
S11331B08B464146002901D001F083F8A30601D5CE
S11331C000F0E9FDE30601D500F09BFD630601D4A0
S11331D000F097FD69460F9B098D1A680433079226
S11331E011800F93A3E54B461C430B78D8E512934B
S11331F00F9B8B461D1D1B6816A91A0011930023F3
S1133200CB77002A01D100F0FBFE5346013301D1F4
S113321000F038FE52460021119802F00DFC0028FF
S113322001D100F054FF119BC31A1A000E93DB4323
S1133230DB171A4016ABDB7F0792984600230F95E5
S113324008949A4613935FE60F9A1293136828AD75
S113325007936B461B7F8B462B70002316A9CB77F5
S1133260130004330F930023089498460133079303
S11332700E93002311959A4613934BE68B464146D1
S11332801293002900D1F4E516ABD877F1E5634633
S11332901C430B7884E50B786C2B01D100F086FD80
S11332A0102214437CE58B4641461293002901D039
S11332B000F0E8FF634B1793A30600D453E70722FB
S11332C00F9B07339343013294469C4462460F920A
S11332D01A685B680C920D93E30700D555E70C99C7
S11332E00D9A0800104302230200DEE68B460F9974
S11332F030220B680C9300230D9302331C431EAB46
S11333001A7048325A700B0004330F934D4B1292CB
S113331017930C9A0223C8E601231C430B783FE55C
S11333200F9B1A1D1B680B93002B00DA42E50B78E8
S11333300F9235E50B78002800D031E501222030CA
S113334090462DE58B461293A30600D4EDE60722A2
S11333500F9B07339343013294469C4462460F9279
S11333601A685B6811001A00080010430C910D9252
S11333700123020099E68B461293A30600D483E648
S113338007220F9B07339343013294469C446246C1
S11333900F921A685B6811001A00080010430C9120
S11333A00D920023020080E68B46414612930029C9
S11333B001D000F07FFF129B002B00D10BE528AD5C
S11333C02B70002316AAD37708944EE7BC684346B3
S11333D0002B0FD016AA1F239446634433600123A5
S11333E073607B6801340133BC607B60072B00DDB4
S11333F0B3E108364B46002B0CD01EAB33600223DE
S113340073607B6802340133BC607B60072B00DD92
S1133410AFE10836109B802B00D120E153460E9A71
S11334209D1A002D3CDD084A7B689146102D2CDD49
S1133430102221009246099C32002E004D4609E0DC
S11334406C90000080900000B0900000103E0832A4
S1133450102E16DD50461031013315605060B960EE
S11334607B60072BF2DD3A000699200002F002FF90
S1133470002800D0B7E4103EB9687B6832AA102E49
S1133480E8DCA9460C00350016004A4664190133ED
S113349032607560BC607B60072B00DD51E108364B
S11334A0089BDB0500D5B6E0119B33600E9B9C4660
S11334B073607B6864440133BC607B60072B00DD70
S11334C09DE00836089B5B0741D50B9B079A9D1A24
S11334D0002D3CDDC44A7B689046102D26DD102269
S11334E021009146099C32002E00069D03E0103E07
S11334F00832102E17DDBC481031106048460133E5
S11335005060B9607B60072BF1DD3A002900200090
S113351002F0B0FE002800D065E4103EB9687B6874
S113352032AA102EE7DC35000C001600424664195E
S1133530013324C6BC607B60072B08DD3A00069982
S1133540099802F097FE002800D04CE4BC680B9B5D
S113355007998B4200DA0B000A9A94469C4463460E
S11335600A93002C00D0D6E0002332AE7B60FFF734
S1133570DEFB149B012B00DCAEE0119B01343360B5
S1133580012373607B68BC6001337B60072B00DD23
S1133590DFE20836199A01333260189A9846944645
S11335A064447260BC607B60072B00DDDEE2083699
S11335B0002200231698159903F002FB002800D07E
S11335C0A4E1119D149B0135013B35607360E4183F
S11335D001239C46E0444346BC607B60072B00DD2E
S11335E08BE0083621AB33601A9B9C4673604346DC
S11335F064440133BC607B60072B00DC61E73A0064
S11336000699099802F036FE002801D0FFF7EBFB7B
S1133610BC6832AE56E7129B652BAADD002200235C
S11336201698159903F0CCFA002800D1E2E06F4B0C
S113363001343360012373607B68BC6001337B60B9
S1133640072B00DD66E308361F9B149A934200DAC9
S1133650A4E1089BDB0700D5A0E1BC6832E70B9B23
S1133660079A9D1A002D00DCD8E6614A7B689146D2
S1133670102D25DD102221009046099C32004E4673
S113368003E0103D0832102D17DD404610310133A0
S113369016605060B9607B60072BF2DD3A00069932
S11336A0200002F0E7FD002801D0FFF79CFB103D4D
S11336B0B9687B6832AA102DE7DCB1460C0016000D
S11336C04A466419013332607560BC607B60072B25
S11336D000DD7EE20836A1E60123089A134200D0F9
S11336E04BE773607B68119A013301343260BC602C
S11336F098467B60072B00DC73E73A00069909982B
S113370002F0B8FD002801D0FFF76DFB7B68BC68B0
S1133710984632AE66E73A000699099802F0AAFD87
S1133720002800D120E7FFF75EFB089C012B00D1A5
S113373084E1022B29D10894002300240C930D94D6
S1133740C5E43A000699099802F094FD002801D0D6
S1133750FFF749FBBC6832AEA2E63A000699099825
S113376002F088FD002801D0FFF73DFBBC6832AEB3
S113377040E63A000699099802F07CFD002801D041
S1133780FFF731FBBC6832AE44E608940023002402
S11337900C930D940C980D995B4632AA07939146AD
S11337A0B34600E0A1464A0794464B4665465C1E74
S11337B0C6080723CA08354311002A0003403033E2
S11337C0237028000A43EDD10C900D9107995E46B1
S11337D08B4608994A461194C90700D53DE132AB9E
S11337E01B1B0E93FFF788FBA09000009C90000029
S11337F0B09000001F98002800DC96E2139A1499F8
S1133800130090468B4200DD88464346002B0CDDB6
S1133810119B44443360434673607B68BC6001334E
S11338207B60072B00DDB7E308364346DB434246A3
S1133830DB171340139AD31A9846002B00DC28E1B7
S1133840102B01DC00F0E7FCCF4A21009146102246
S11338507B689246099D32004C46464604E0083295
S1133860103E102E00DC04E1504610310133146088
S11338705060B9607B60072BF1DD3A00069928009F
S113388002F0F8FC002801D0FFF7ADFAB9687B68B4
S113389032AAE5E70D9B002B00D1CAE00C9C0D9DDC
S11338A032ABB1461E00200029000A22002303F097
S11338B0B5F9013E303232700023200029000A227B
S11338C003F0ACF9030004000D000B43EBD132000C
S11338D032AB9B1A11960C940D954E460E93FFF73E
S11338E00BFB00230E9332AB1193FFF705FB3A0059
S11338F00699099802F0BEFC002801D0FFF773FA7C
S113390016ABDB7FBC68984632AE60E5149B5D1E47
S1133910002D00DC66E69C4B9946102D29DD102312
S113392032009A462E0021004346099C4D4603E08E
S1133930103E0832102E17DD504610310133156049
S11339405060B9607B60072BF2DD3A0006992000D5
S113395002F090FC002801D0FFF745FA103EB96848
S11339607B6832AA102EE7DCA9460C003500984685
S113397016004B4675603360641929E60F9B1A687C
S1133980FFF7FBFB13680793FFF782FA0F9B1A6894
S1133990FFF784FB0F9B1A68FFF7D1FB199BBA68EA
S11339A03360189B9C4673607B6862440133140047
S11339B0BA607B60072B00DD02E20836149B5D1EB3
S11339C0002D00DC7EE5704A7B689146102D25DDD4
S11339D0102221009046099C32002E004D4603E03F
S11339E00832103E102E15DD4046103101331560AB
S11339F05060B9607B60072BF2DD3A000699200025
S1133A0002F038FC002801D0FFF7EDF9B9687B68B3
S1133A1032AAE6E7A9460C00350016004A466419A6
S1133A20013332607560BC607B60072B00DC48E5C5
S1133A30E5E50C9B092B00D930E7089C27220C9B59
S1133A4028A930338B54012316AA94460E936E335F
S1133A50634408941193FFF74FFA302B00D10BE223
S1133A603023023A137032AB9B1A0E931192FFF774
S1133A7043FAB046A14616000C004A46326042465C
S1133A80444401337260BC607B60072B00DD9CE220
S1133A9008361F9B149A93424CDB089AD20749D4E8
S1133AA0149A1399D31A521A90469A4200DD9846F2
S1133AB04246002A0FDD1399119A8C466244326003
S1133AC0424672607A6844440132BC607A60072AD4
S1133AD000DD86E208364246D543ED1715405D1BEE
S1133AE0002D00DCEEE4284A7B689146102D95DD1C
S1133AF0102221009046099C32002E004D4603E01E
S1133B000832103E102E85DD404610310133156019
S1133B105060B9607B60072BF2DD3A000699200003
S1133B2002F0A8FB002801D0FFF75DF9B9687B68B3
S1133B3032AAE6E7199A3260189A944672607A6853
S1133B4064440132BC607A60072A00DD30E2083642
S1133B50A6E73A000699099802F08CFB002801D0E8
S1133B60FFF741F9BC687B6832AE13E53A00069969
S1133B70099802F07FFB002801D0FFF734F97B6835
S1133B80BC68984632AE13E5B090000007230732B4
S1133B909A4301339C46944463460F9353681268D6
S1133BA00D930C92002B01DBFFF77AF90C980D9919
S1133BB0002342428B4111001A002D2316A8C3771B
S1133BC0080010430C910D92984602002C3BFFF71D
S1133BD070F93A000699099802F04CFB002801D0CC
S1133BE0FFF701F9BC6832AE18E41699159D0A0076
S1133BF008002B00290004F0CBFD002800D0E6E2E9
S1133C005346013300D10DE22023129A9A430E92B7
S1133C10472A00D11CE180235B0023430893159BB2
S1133C20002B00DA21E2169A0793002391461093A1
S1133C30129B662B00D1FCE1462B00D1DBE00E9AEF
S1133C400998453A13005942594120AB0D0003939A
S1133C501FAB0293022323AA55441B9204920093A0
S1133C600195079B4A4600F043FC129B1190672B79
S1133C7000D039E2119B9846A844E30700D48BE2B4
S1133C80002300224846079902F09AFF4346002881
S1133C900AD1239B434507D2302140465A1C239224
S1133CA01970239B9842F9D8119A9B1A14930E9B6E
S1133CB0472B00D1F6E0129B652B00DC26E2129B19
S1133CC0662B00D1F4E11F9B1393149B139A1900E4
S1133CD0914200DDD4E1E30700D549E2D343DB1789
S1133CE011001A40672307920E911293109B002B28
S1133CF000D0CFE016ABDB7F984600239A46FFF74F
S1133D0003F90F9A0A9913681960130004330F9387
S1133D10FFF70DF83A000699099802F0ABFA00286B
S1133D2001D0FFF760F832AE8EE4DE4B013433602D
S1133D30012373607B68BC6001337B60072B7ADCF2
S1133D400836002807D1149B002B04D1089BDB07FD
S1133D5001D4FFF7B7FB199B3360189B19197360E3
S1133D607B68B96001337B60072B00DDF2E1320030
S1133D700832002800DACCE111980133106014985D
S1133D807B6044185060BC60072B00DD37E40832C8
S1133D901600FFF797FB0F990A9A0B681A60D2175F
S1133DA05A600B0004330F93FEF7C1FF4B460131F9
S1133DB01C430B78FEF7F4FFBB4B1193FFF737F965
S1133DC03A000699099802F055FA002801D0FFF745
S1133DD00AF8BC6832AEF1E54021099801F078FB9D
S1133DE0069B18601861002800D14FE24023069A10
S1133DF05361FEF78EFF23AB1B93049320AB039315
S1133E001FAB02935346019303234A460093099838
S1133E10079B00F06DFB55461190119B9846129B31
S1133E20A844462B00D02BE7119B1B78302B16D0CF
S1133E301F9B984424E73A000699099802F01AFA5D
S1133E40002801D0FEF7CFFF1F98BC6832AE78E798
S1133E505346002B00D0DEE601339A46DBE600220F
S1133E6000234846079902F0ABFE0028E0D1012365
S1133E705B1B1F93984403E7119A32AB9B1A0E9372
S1133E80FFF73AF8119802F0C3F902000E9003000C
S1133E90FFF7CDF92D2316AAD377984600239A4627
S1133EA0FFF735F81F9B1393DA1C02DB9A4500DBFE
S1133EB00BE7129B023B12932C22139B48215D1E9D
S1133EC016AB9B186A46521812781F951A70002D6B
S1133ED000DAA4E12D212B2316AA52181370092D00
S1133EE000DC4CE116AA3B23944663449A46B1464F
S1133EF0A046564600E0260028000A21FDF7FEFEF3
S1133F00741E3031217028000A21FDF711FE0500CE
S1133F100928F0DC23004446B0464E469946030087
S1133F203033D8B24346023B18709A4500D8B4E106
S1133F3042461B9B4546991A012307315B4201E027
S1133F40E85C013321AAD218D0708B42F8D116A9AB
S1133F508C462E224B4662449446FB1A634421AAA3
S1133F6014999B1A9C460A0062441A930E920129E2
S1133F7000DC45E1189A0E9B944663441A000E93A4
S1133F80DB43DB171A40002307921393AEE60123A9
S1133F905B420A93FEF72DFF3A000699099802F056
S1133FA069F9002801D0FEF71EFFBC6832AE3CE47C
S1133FB03A000699099802F05DF9002801D0FEF74D
S1133FC012FF1F9BBC6832AE6AE53A000699099855
S1133FD002F050F9002801D0FEF705FFBC6832AEAC
S1133FE057E53A000699099802F044F9002801D0EF
S1133FF0FEF7F9FE149B1F9ABC689B1A32AE6AE561
S113400053460793062B01D906230793079B0F9565
S11340100E93002398469A461393244B08941193C5
S1134020FEF778FF2023129A9A431A3B0E929A467F
S1134030F1E523AB1B93049320AB03931FAB0293D3
S11340405346019303234A4600930998079B00F0C3
S11340504FFA03005344119098465546E4E62D2345
S113406016AAD3779846FEF7DBFF80221206944601
S1134070169B9946159B634407932D231093D7E50C
S1134080189A149B9446139A63440E93002A00DCF6
S1134090CEE01A00DB43DB171A4067230792129322
S11340A024E6C0469C9000006090000094900000BC
S11340B01F9B1393002B00DCD5E05246002A00D04E
S11340C092E0E20700D58FE007930E930EE616AB5D
S11340D0DB7F0F959846534607930E93002308946D
S11340E09A461393FEF710FF119B9846129BA8441F
S11340F0472B00D0C4E5E30700D58EE6239B119A35
S11341009B1A14930E9B472B00D1CBE61F9B139352
S1134110D2E64442103000DBD0E06E4810260500A1
S113412003E00832103C102C38DD103101331560E7
S11341305660B9607B60072BF3DD3A000699099855
S113414002F098F8002801D0FEF74DFEB9687B68AC
S113415032AAE7E73A000699099802F08BF800289A
S113416001D0FEF740FE1F98B9687B6832AA00E6CA
S1134170189A139B944663441A000E938AE72E21DF
S1134180302316AA521813702B0016AA01313033AB
S11341905218137022ABE2E6239B85E5A9464846F4
S11341A00919013310605460B96008327B60072B31
S11341B000DCE1E53A000699099802F05BF8002872
S11341C001D0FEF710FEB9687B6832AAD4E5159BCE
S11341D0002B38DB16ABDB7F9846129B472B2EDC7B
S11341E03D4B1193FEF723FF189A139B94466344A7
S11341F053441A000E93DB43DB171A40079275E50C
S113420001232340139300D0B4E60E9AD343DB1763
S11342101A4007926AE52F4A7B6891462DE40123F0
S1134220139A1B399D1A16AA2C335218137056E68A
S11342300E9B139A981A431C1A000E932AE7274BD5
S11342401193FEF7F4FE2D2316AAD3779846C4E7FC
S11342500F9B1A1D1B689A46002B36DB4B780F9276
S11342605946FEF79DFD5346002B01D1E30703D5C4
S1134270189B581C0300BBE7012325E716ABD8772E
S1134280FEF76CFF16ABD877FFF714F80C23099AE6
S113429013600D3B0A93FEF7ACFD16AA2E23944639
S11342A063445CE616ABD877FEF785FE16ABD87789
S11342B0FEF7DDFD16ABD877FFF77DF8054881469C
S11342C06DE716ABD877FEF779FF01235B429A4678
S11342D0C4E7C046B09000006490000068900000FD
S11342E0F0B54646D6464F46C0B58AB090466A46B3
S11342F01D4B0D00060013CB13C213CB13C213CBFB
S113430013C21B78EA4613704346023B2F00002475
S1134310222B01D924E04C46631C300041469946C7
S1134320FDF702FC53465B5C30003B704146FDF7F1
S113433075FB0137061EEED14B46E8540023002CD2
S113434007D0EA5C295DE9542A550133013CA342B4
S1134350F7DB28000AB01CBC90469946A246F0BD83
S11343602C700020F6E7C046C090000010B5FFF79F
S1134370B7FF10BD034B10B5002B02D0024800F06C
S113438005F810BD000000007954000010B50100CC
S113439000230022002001F0FDFF10BDF0B54546CA
S11343A08046DE4657464E464246E0B50C691269E1
S11343B085B00B0002910020944200DD90E01422AD
S11343C09446634499464A46013CA300D6181422F5
S11343D0424493469B4433681500591C5B46186855
S11343E00192FDF71BFB031E009042D02900002719
S11343F04D460020B146A2463E0004009C462F00D4
S113440008000395634604CF15042D0C5D43120C7C
S11344105A43AD192B0CD21803682D041904090C46
S11344200919160C2D0C1204491B120C1B0C9B1A97
S11344300A149B1809041C14090C1B04194302C018
S1134440B945DFD2039B4E4699465B461B685446EA
S1134450002B0ED15B46019A043B9A4204D306E03A
S1134460043B013C9A4202D219680029F8D0434621
S11344701C610299404601F0A5FD00282FDB4F4640
S11344800020009B019D013300932B6802CF1A0486
S1134490120C10180A04120C821A090C1B0C5B1A59
S11344A011145B1812041814120C1B04134308C5CE
S11344B0BE42EAD20199A3008C4663441A68002ADA
S11344C00DD1043B0A00994204D306E0043B013CAD
S11344D09A4202D219680029F8D043461C61009818
S11344E005B03CBC90469946A246AB46F0BDC046DA
S11344F0F0B557464E464546DE46E0B5016C99B0E8
S113450082461D0016001F00002909D00123426CB9
S113451093404A608B6001F049FB002352461364C8
S1134520B846002F37DB0023259A13604246D64B4A
S11345301A409A4218D0002200233000390002F0B9
S11345403FFB00282FD00123249A1360269B002BC5
S113455000D12AE2CD481860013819B03CBC90461D
S11345609946A246AB46F0BDC94B249A1360002E6F
S11345700BD14346180308D1269BC648002BECD028
S113458003000833269A1360E7E7269BC248002BF2
S1134590E3D0C31CF6E70123259A6800136043089F
S11345A098461F00C2E716AB019317AB0093320085
S11345B03B00504601F0BCFD434683461A0D00D132
S11345C0D6E13B03B54C1B0B1C43B54B300098465E
S11345D0169B21009946002390440F930022B14B6F
S11345E003F0C0FDB04AB14B03F03CFBB04AB14B01
S11345F002F0F4FB040040460D0004F01DF9AE4A3D
S1134600AE4B03F02FFB02000B002000290002F048
S1134610E5FB04000D0004F0DBF800220390002306
S11346202000290002F0D2FA002800D0B1E20123D0
S1134630039C0C93162C10D8A149E300C91832002E
S1134640086849683B0002F0D5FA002800D11DE350
S11346502300013B039300230C934B4642469A1AD2
S1134660002306931300013B049300D5A1E2039BAE
S1134670002B00DA84E29C460D930023049A9946A9
S1134680110061440491229B092B00D98FE101247C
S1134690052B02DD0024043B2293229B032B01D132
S11346A000F0CEFC01DC00F092FC229B042B01D133
S11346B000F040FC01230B93229B052B01D000F05A
S11346C08BFC239A039B944663440E930133079314
S11346D01D1E01DC00F049FD079B9846002352464D
S11346E000215364172D0AD9012204335B001800FA
S11346F01430110001328542F8D2534659645046B1
S113470001F02CFA5346186443460A900E2B00D944
S113471061E1002C00D15EE110961197039E002EFA
S113472001DC00F025FD32000F21654B0A40D20068
S11347309B1836111C685D68F30601D400F0CAFCAE
S1134740604B0E401A6A5B6A1098119902F056FE8B
S11347500323984608900991002E11D0594F012344
S1134760334209D09C463A687B6820002900E04423
S113477003F078FA04000D0076100837002EEED10D
S11347802200089809992B0002F038FE06000F0059
S11347900C9B002B09D00022404B3000390002F062
S11347A015FA002801D000F0C2FD404604F044F898
S11347B032003B0003F056FA0022434B02F00EFB9A
S11347C0424A0B0094466344089009910993079B5D
S11347D0002B01D100F050FC039B1393079B129311
S11347E00B9B002B01D100F01DFD129B00205A1ED3
S11347F0334BD2009B181A685B68354902F0FEFD02
S1134800089A099B03F0AEFC089009913900300026
S113481003F0DEFF040004F00FF802000B00300088
S1134820390003F09FFC05000E000A9A3034511C35
S1134830E7B2149117703300089809992A0002F01E
S1134840D9F9002801D000F0FEFD2A003300002031
S1134850124903F087FC02000B000898099902F042
S1134860C9F9002801D000F0E7FD129B012B01D10A
S113487000F078FC0A9A129B9446634498464B468F
S11348801293149B994638E00000F07F9D9000003D
S11348900F270000E8900000F49000000000F03FB3
S11348A001FCFFFF0000F83F61436F63A787D23F1D
S11348B0B3C8608B288AC63FFB799F501344D33F0B
S11348C020910000F890000000001C400000C0FC93
S11348D00000E03F2A0033000020B94903F042FC05
S11348E0089A099B02F072F9002801D000F074FDC7
S11348F0A146444501D100F033FC089809990022EF
S1134900B04B03F0AFF90022AE4B08900991280098
S1134910310003F0A7F90D00040003F059FF07006C
S113492003F08AFF02000B002000290003F01AFCA8
S11349304B463037FFB25C1C1F70089A099B050078
S11349400E0002F043F90028C4D0139B0393594688
S1134950504601F02BF900232370039B249A013362
S11349601360269B002B00D1A8E31C600A98F4E591
S1134970169B9946179B4B441C00934BE318202B22
S113498000DC7EE13100914A4046A218D1400A0081
S11349904021CB1A9840104303F090FF631E9846C1
S11349A001238B4D0F93491918E68A48D5E5002356
S11349B0524600215364504601F0D0F8534618641F
S11349C001235B4207930E93023300220B930023CF
S11349D00A9023922293179B002B00DAABE0039AF0
S11349E00E2A00DDA7E07C4BD2009B185C681B6894
S11349F004930594239B002B00DAA7E2049C059DF5
S1134A00300022002B00390002F0F8FC03F0E0FE35
S1134A10804603F011FF22002B0003F023F902006B
S1134A200B003000390003F09DFB43460A9A3033F3
S1134A301370079B06000F00541C012B4ED000225C
S1134A40604B03F00FF90022002306000F0002F070
S1134A50B7F8002800D07AE70A9B079A9D1C9C4669
S1134A605B46069353466244AA46049C059D9146C0
S1134A7007930FE00022534B03F0F4F801239C4604
S1134A800022002306000F00E24402F099F80028F7
S1134A9000D0D9E222002B003000390002F0AEFC35
S1134AA003F096FE804603F0C7FE22002B0003F0BD
S1134AB0D9F802000B003000390003F053FB5346D1
S1134AC04246013B303206000F00D3461A70D145EE
S1134AD0D0D1069B54469B46079B9A4632003B0026
S1134AE03000390002F07AF906000F0002000B00D2
S1134AF00498059902F06AF800280CD104980599E5
S1134B0032003B0002F05CF8002800D11FE7434666
S1134B10DB0700D41BE7651E2F780A9B06E09D4245
S1134B2000D151E3023C27782C00013D392FF6D007
S1134B3001372F700BE70B9A002A4FD0229A012AD3
S1134B4000DC2CE2079B5C1E4B46A14500DAB8E270
S1134B501C1B079B002B00DAD4E3069B0893079BDE
S1134B60069A012194469C4462460692049A504651
S1134B7094469C446346049301F0B0F8804632E0C6
S1134B80069A039BD21A5B429946002306920D9320
S1134B9079E5039803F050FE0B0002002900200081
S1134BA002F00EF8020050425041039B1B1A03937B
S1134BB03DE501239B1A06930023049357E5C04661
S1134BC00000F03F00002440320400001204000002
S1134BD0000010FE9C90000020910000069B4C46B3
S1134BE008930023984608990B1E0EDD049A002AA8
S1134BF00BDD934200DD87E1069AD21A0692089AE9
S1134C00D21A0892049AD31A04934B46002B1AD052
S1134C100B9B002B00D1BBE1002C10DD4146220090
S1134C20504601F00FF95A4601008046504601F003
S1134C305FF805005946504600F0B8FFAB464B46B6
S1134C401A1B00D0A5E10121504601F047F80D9B45
S1134C508146002B1DDD1A000100504601F0F2F8D8
S1134C60229B8146012B00DC50E100244B461B694A
S1134C7003339B004B44586800F0E8FF20231B1AC1
S1134C8010E020223000D31A984085E600230C93CC
S1134C90E3E4229B0024012B00DC8BE10D9A012329
S1134CA0002AE3D104991F208C466344184000D1A4
S1134CB0AEE020231B1A042B00DCCCE31C23181ABF
S1134CC0069B9C46844463460693089B9C46844406
S1134CD063468C468444089363460493069B002BE6
S1134CE005DD59461A00504601F00CF98346049B31
S1134CF0002B05DD49461A00504601F003F98146B0
S1134D000C9B002B00D094E0079B002B00DC75E18A
S1134D100B9B002B00D1A6E0089B002B05DD414630
S1134D201A00504601F0EEF8804643460C93002CDE
S1134D3000D050E2079C0A9A013C23009446634445
S1134D4008930123334007934B4606930C9B574625
S1134D5045465E4692469846069B300019009946A1
S1134D60FFF71CFB03000B90303329003000049341
S1134D7001F028F9494604004246380001F03CF9A4
S1134D80C3688146002B00D01EE10100300001F011
S1134D9019F983464946380000F008FF5B46229A19
S1134DA0134303D1079B002B00D106E3002C00DA48
S1134DB0A8E1229B1C4303D1079B002B00D1A1E156
S1134DC05B46002B00DD82E2694652465346097C6D
S1134DD05C1C1170089A524500D18AE2310000230C
S1134DE00A22380000F0ECFE002306000A22290003
S1134DF03800454500D1E1E000F0E2FE41460500FF
S1134E0000230A22380000F0DBFEA2468046A3E716
S1134E101C20069B9C46844463460693089B9C4640
S1134E20844463460893049B9C46844463460493E9
S1134E3054E74946584601F0C5F8002800DB63E70B
S1134E40039B5946013B03930A220023504600F07A
S1134E50B7FE0B9B8346002B00D0CAE20E9B002BAF
S1134E6000DCD8E207930A9B5D460024079F9B461B
S1134E7006E0290000230A22504600F0A1FE0500A6
S1134E8049462800FFF78AFA5B463030185501344A
S1134E90BC42EEDBAB460600079C002C00DC37E28C
S1134EA00A9B00279C46644459460122504601F05F
S1134EB029F84946834601F085F8002800DC44E1DE
S1134EC0651E2B780A9A06E0954200D1B1E0023CB7
S1134ED023782C00013D392BF6D001332B70494641
S1134EE0504600F063FE4346002B00D12FE5002F0F
S1134EF005D0474503D03900504600F057FE4146DF
S1134F00504600F053FE22E5130075E6002E00D053
S1134F10ABE63B030024002B00D0BFE6BA4B3B4278
S1134F2000D1BBE6069B013401330693049B013395
S1134F300493B3E601230B93239B002B00DCD1E005
S1134F401D0098460E930793FFF7C8FB079B002BA1
S1134F5000DD53E500D0ADE0049805990022AB4B89
S1134F6002F080FE3B00320001F04EFE0023994621
S1134F709846002855D0239B0A9CDB43039349465B
S1134F80504600F013FE4346002B00D1DFE4B6E7A1
S1134F904A465946504600F055FF834653E60F9A59
S1134FA0002A00D1B6E19A4A4C469446069A6344D4
S1134FB00892D5E5002E00D070E6AAE700F000FEC6
S1134FC0A24605008046C7E601239B46E2E600238D
S1134FD00B93229B022BAFD00024534621005C6428
S1134FE0504600F0BBFD5346186401235B4207930F
S1134FF00E9302330A9023940B93ECE4229B022B2E
S113500000DC85E6079B002BB5D1494605225046B6
S113501000F0D6FD81460100584600F0D3FF002879
S1135020A9DD31230A9A1370039B541C01330393A3
S1135030A5E7039B0A9A01330393312313704EE7C8
S113504000230B93FFF73DFB069B5C469B46079BA7
S11350509A467CE4404603F0EFFB32003B0002F04A
S113506001FE00226B4B01F0B9FE6B4A0B00944623
S113507063440890099109930022644B300039007D
S113508003F070F8089E099F32003B0004000D00F5
S113509001F0B0FD002800D0B2E080200006844674
S11350A0390061440B0032002000290001F08EFD1C
S11350B0002857D00023994698465CE70A98FFF7E2
S11350C04CFAE21A0D9BA1469C4694446346002484
S11350D00D933EE5109A119B08920993022398467A
S11350E0FFF73AFB0023524600215364504600F078
S11350F035FD5346186401230A90079323930E93B6
S1135100FFF707FB43460C935B46069AA846B34653
S11351105546049E9146BA46002B10DD594601229D
S1135120380000F0EFFE4946834600F04BFF0028AC
S113513000DC57E1392E00D122E10B9E31360C9B65
S113514047466C1C2E709846C9E6002803D1F30725
S113515001D5B5E61C00631E1A78302AFAD0BEE6E3
S1135160129B9946109E119F35E40125FFF7B4FA6E
S1135170039B002B00D1D4E0109811995C420F23BB
S1135180264A2340DB00D3181A685B6802F06AFDE4
S1135190241106000F00002C00D149E10223984697
S11351A01F4D0123234209D09C462A686B683000B6
S11351B03900E04402F056FD06000F006410083583
S11351C0002CEED1FFF7E4FA039B3027013303935D
S11351D030232B70ACE45968504600F0BFFC4346C2
S11351E0414604001B690C319A1C92000C3000F0FB
S11351F063FC01222100504600F084FE0C9099E5E6
S11352000023994698460CE70000F07F0000144004
S11352103304000000001C400000C0FC209100008A
S1135220F8900000129B8F49013BDB00C918086805
S11352304968089A099B02F015FD149015913900EC
S1135240300003F0C5FA050003F0F6FA02000B0083
S11352503000390002F086FF129B089009910A99E8
S11352601A008C46303562444C1C0D709046012B5C
S11352701BD008980999250000227B4B02F0F2FC10
S11352800F00060003F0A4FA040003F0D5FA30344A
S113529002000B003000390002F064FF2C7001356D
S11352A0A845E9D14446089009911498159900221B
S11352B06E4B01F093FD089A099B01F087FC0028CE
S11352C067D0139B651E03932F780A9B2EE44346F5
S11352D0B3460C93049E069BA84699465546BA4687
S11352E0392E4DD00C9B013647466C1C2E709846C7
S11352F0F5E54246069BB346BA46049E99462F00FE
S11353009046D1E5069B079A9B1A0893002327E44D
S11353100124C5E53623169A4C469B1A069A089230
S11353201EE40223109E119F9846FFF731FA079B53
S1135330002B00D18EE60E9C002C00DC12E7039BB0
S11353400022013B13933000474B390002F08AFCE2
S1135350060040460F00013003F06EFA32003B00B5
S113536002F080FC0022424B01F038FD414A0B0060
S1135370944663440890099112940993FFF730FA14
S113538039232B700C9B47466C1C98460A9A392388
S1135390A1E5149A159B0020344902F0E3FE089A13
S11353A0099B01F027FC002801D1DBE61C00631EE9
S11353B01A78302AFAD0FFF7C8FA4346B3460C935A
S11353C0049E069BA84699465546BA46392ED7D020
S11353D0002C00DDB1E6B2E6139A4D4603920A9B17
S11353E0FFF7A4FB002800D0A9E6F30700D4A6E643
S11353F0A0E6002341460A22504600F0E1FB0E9B42
S11354008046002B01DD079386E4229B022B1FDCE0
S11354100E9B079380E4229B022B19DC4946FEF77E
S1135420BDFF0A9B303018700E9B0600079333E5CE
S113543002239846FFF7ACF9139B149C03930A9B31
S11354401D00FFF773FB139B149C0393FFF77FFA74
S11354500E9B0793D6E5042B00D13FE43C23181A96
S1135460D7E4C04620910000000024400000E03F43
S113547000001C400000C0FC70B5094B094CE41A44
S1135480A41009D0084AA518AD00ED182B68013CFA
S11354909847043D002CF9D103F080FF70BDC0464D
S11354A0A8930000AC930000FFFFFF3F044B1B6870
S11354B0586B002801D0F03070470248FBE7C04623
S11354C014030020540B00207047C0467047C046A8
S11354D0F0B557464546DE464E46E0B50D000B3561
S11354E083B00700162D00D89FE007239D4300D505
S11354F0C4E0A94200D9C1E000F020FBF823FF3347
S11355009D4200D88FE2680A00D1BBE0042800D98C
S113551062E138239846A80980443930C100D24E4C
S113552071180839CC68A14219D0032362689A43E0
S11355301300521B0F2A00DDAAE0002A00DB88E0DA
S113554003239C4608E06246636893435A1B0F2A70
S113555000DD9DE0002A7CDAE468A142F3D1320048
S113556034690832944200D190E10323616899437D
S11355708946491B0F2900DD62E17261326100290D
S113558000DB87E0B94A4B46914500D930E1DB089E
S1135590FF3A9910FF3A8A40DB0071689B190A436D
S11355A099687260E360A1609C601300CC60012183
S11355B08210914099426FD80B4205D10322904347
S11355C0490004300B42FBD003239846C30099469C
S11355D0B144CC4682466346DC68A44507D157E112
S11355E0002A00DB66E1E468A44500D150E14246AC
S11355F0636893435A1B0F2AF2DD01208046611928
S113560005436560A068E5680836C560A860404643
S1135610F160B16010434860CE608E603800E250A3
S113562000F094FA2000083021E0102926D8380030
S113563000F084FA1025182302208B4EF3181A0068
S11356405C68083A944200D12EE1032362689A43CD
S11356501300E268A168CA6091600122E3185968E6
S113566038000A435A6000F071FA2000083003B091
S11356703CBC90469946A246AB46F0BD0C230020A4
S11356803B60F4E780213F2340208900984646E7A9
S1135690404664E74B46E0E70323B46862689A43F4
S11356A09046AA4203D3531B0F2B00DD86E0230050
S11356B043446F4A01936F4B93461B681268EB187F
S11356C0013200D168E16C4A944663441B0B1B030E
S11356D000930099380000F089FD030081460133EE
S11356E061D0019B834200D9FFE0644B009A9A4643
S11356F01B689C46534662441A60019B1100834216
S113570000D155E15B461B68013300D16CE14B4687
S1135710019A9B1A59185346196007234A461340A5
S113572000D124E1082189465549D21A9144CB1A63
S1135730009A38004A441105090D5B1A19009B466A
S113574000F054FD431C00D142E14B46C01A012332
S11357505844184353461B685B4419005346196068
S11357604B46B3605860B44213D043460F2B00D865
S1135770E8E04346072260680C3B9343063A024044
S113578005201A436260E218506090600F2B00D924
S113579022E13C4B1A68914200D919603A4B1A68CD
S11357A0914200D919600323B46862689A43531B79
S11357B0954200D9C9E00F2B00DCC6E00122290084
S11357C013431143651961603800B5606B6000F0E4
S11357D0BDF9200008304AE714287AD9542800D9A2
S11357E0BAE06E239846280B80446F30C10096E6D9
S11357F05A0A042A73D9142A00D9D0E011005C3261
S11358005B31D20008235B429C46B2189444634641
S11358109A6803239846944500D1ABE04346516807
S11358209943894500D395E092689445F6D163463F
S1135830DA6873686146E260A1609460CC60B6E6A1
S1135840012360191D43656070613061C26082602C
S11358501A004B460A4342603800E15000F076F9E2
S11358602000083003E7C04644070020FF01000081
S11358704C0B0020780F00200F100000480F002070
S113588008100000700F0020740F002073688EE66B
S113589008239B46073BDC449B46DA444346524676
S11358A0134200D097E637E0DC680230A34200D10F
S11358B055E6CAE60122E318596838000A435A60DB
S11358C0E368A268D3609A6000F040F920000830D1
S11358D0CDE65B23984680445C30C1001FE69A09FC
S11358E0110039323831D2008CE7B44200D05AE783
S11358F04F4B009A9A461B689C46534662441100DB
S11359001A60FFE608235B429C46E1444B469B68D1
S11359100138994500D084E043460342F2D17368CC
S11359208B4373604900994200D9B5E6002900D140
S1135930B2E650460B4200D048E6490004300B4220
S1135940FBD043E601234A465360380000F0FEF8DA
S113595000208CE694466AE7AA235B00984211D89B
S1135960DD3B9846E80B80447830C100D7E58023BE
S11359705B01DDE68910023B8B4072681343736060
S1135980624657E72B4B98421CD87C239846A80CB8
S113599080447D30C100C2E51033009399E6542A57
S11359A026D84B461A0B11006F326E31D20029E70C
S11359B01B0500D0A6E60120009BB26843440343C4
S11359C05360E6E6FE217E237F2089009846A6E503
S11359D0002301209B46BDE621003800083100F079
S11359E0CFFD53461968D4E65B464A461A6094E6EE
S11359F0AA2149008A4206D84B46DA0B11007832B4
S1135A007731D200FEE60B498A4206D84B469A0CFF
S1135A1011007D327C31D200F4E6FE227E21920018
S1135A20F0E673687EE72B00E808083305E6C04615
S1135A30480F00205405000070B5CDB2830734D060
S1135A40541E002A1BD00378AB4219D0032204E071
S1135A50013C14D30378AB4212D001301042F7D189
S1135A60032C0ED8002C0AD00378AB4208D00419BA
S1135A7002E00378AB4203D001308442F9D1002024
S1135A8070BDFF220B061B0C114019430B04084E7A
S1135A9019430368074A4B409A189A433242E3D1A8
S1135AA0043C0430032CF4D8DCE71400D8E7C046E7
S1135AB080808080FFFEFEFEF0B505000F2A2FD9FE
S1135AC00B0003439B0734D116000C000300103E67
S1135AD0350901352D01451927681F6067685F6026
S1135AE0A7689F60E7681034DF6010339D42F3D1EC
S1135AF00F239E431036851989191340032B1AD995
S1135B001E1F0023B4080134A400CF58EF500433FF
S1135B10A342FAD10324A643331D2240C918ED1829
S1135B20002A05D00023CC5CEC5401339342FAD113
S1135B30F0BD0500F6E71A00F2E7C04610B50248CA
S1135B40FFF7C2FC10BDC0468C0F002010B5024800
S1135B50FFF7BCFC10BDC0468C0F002070B50400DC
S1135B60C06C0D0000280AD0AB00C31818680028C8
S1135B700FD002681A6000230361C36070BD212244
S1135B800421200000F080FCE0640028ECD1002017
S1135B90F4E70126AE40721D92000121200000F0BE
S1135BA073FC0028F3D045608660E4E7002906D042
S1135BB04B689A00C36C9B181A680A601960704796
S1135BC0F8B5CE4647468146080080B50D000C69FD
S1135BD01F0000211430036801311E04360C5643A3
S1135BE01B0C5343F619370CDB1936041F0C360C07
S1135BF01B049B1908C08C42EDDC002F08D0AB6855
S1135C009C420ADA231D9B00EB1801345F602C616F
S1135C1028000CBC90469946F8BD6B684846591C50
S1135C20FFF79CFF29002B6980469A1C92000C31D7
S1135C300C30FFF741FF6B689A004B46DB6C9B18F6
S1135C401A682A601D604546DCE7C0460300020C62
S1135C500020002A01D11B0410301A0E01D1083093
S1135C601B021A0F01D104301B019A0F01D102301B
S1135C709B00002B03DB01305B0000D42020704725
S1135C8003685A0709D00022D90704D49A0720D4FC
S1135C9002229B08036010007047190400220029A7
S1135CA001D11B0C1032FF21194201D108321B0A09
S1135CB0190701D104321B09990701D102329B084B
S1135CC0D90704D45B0801D12022E4E70132036040
S1135CD0E1E75B0803600122DDE7C04610B50C0074
S1135CE00121FFF73BFF01234461036110BDC0465E
